:100000000C942A000C943C000C943C000C943C0092
:100010000C943C000C943C000C943C000C943C0070
:100020000C943C000C943C000C943C000C943C0060
:100030000C943C000C943C000C943C000C943C0050
:100040000C943E000C943C000C943C000C943C003E
:100050000C943C0011241FBECFE5D8E0DEBFCDBF1D
:1000600020E0A0E6B0E001C01D92A436B207E1F79F
:100070000E945C000C949C000C9400001F920F9254
:100080000FB60F9211248F939F93AF93BF9384B1B8
:1000900095B1A0E0B0E08093600090936100A093E0
:1000A0006200B0936300BF91AF919F918F910F90C9
:1000B0000FBE0F901F9018958FEF87BB86B18F6E84
:1000C00086B9789440E050E0BA0180E090E0DC012D
:1000D00027B1206C27B92FE936E8E1E02150304004
:1000E000E040E1F700C000004093600050936100E1
:1000F000609362007093630027B1216C27B92FE9E8
:1001000036E8E1E021503040E040E1F700C0000077
:100110008093600090936100A0936200B0936300AD
:1001200018BA2FE936E8E1E021503040E040E1F72D
:0C01300000C0000018BACCCFF894FFCF3C
:00000001FF
